{
  "_format": "hh-sol-artifact-1",
  "contractName": "KeepersVRFConsumer",
  "sourceName": "@chainlink/contracts/src/v0.8/KeepersVRFConsumer.sol",
  "abi": [
    {
      "inputs": [
        {
          "internalType": "address",
          "name": "vrfCoordinator",
          "type": "address"
        },
        {
          "internalType": "uint64",
          "name": "subscriptionId",
          "type": "uint64"
        },
        {
          "internalType": "bytes32",
          "name": "keyHash",
          "type": "bytes32"
        },
        {
          "internalType": "uint16",
          "name": "requestConfirmations",
          "type": "uint16"
        },
        {
          "internalType": "uint256",
          "name": "upkeepInterval",
          "type": "uint256"
        }
      ],
      "stateMutability": "nonpayable",
      "type": "constructor"
    },
    {
      "inputs": [
        {
          "internalType": "address",
          "name": "have",
          "type": "address"
        },
        {
          "internalType": "address",
          "name": "want",
          "type": "address"
        }
      ],
      "name": "OnlyCoordinatorCanFulfill",
      "type": "error"
    },
    {
      "inputs": [],
      "name": "COORDINATOR",
      "outputs": [
        {
          "internalType": "contract VRFCoordinatorV2Interface",
          "name": "",
          "type": "address"
        }
      ],
      "stateMutability": "view",
      "type": "function"
    },
    {
      "inputs": [],
      "name": "KEY_HASH",
      "outputs": [
        {
          "internalType": "bytes32",
          "name": "",
          "type": "bytes32"
        }
      ],
      "stateMutability": "view",
      "type": "function"
    },
    {
      "inputs": [],
      "name": "REQUEST_CONFIRMATIONS",
      "outputs": [
        {
          "internalType": "uint16",
          "name": "",
          "type": "uint16"
        }
      ],
      "stateMutability": "view",
      "type": "function"
    },
    {
      "inputs": [],
      "name": "SUBSCRIPTION_ID",
      "outputs": [
        {
          "internalType": "uint64",
          "name": "",
          "type": "uint64"
        }
      ],
      "stateMutability": "view",
      "type": "function"
    },
    {
      "inputs": [],
      "name": "UPKEEP_INTERVAL",
      "outputs": [
        {
          "internalType": "uint256",
          "name": "",
          "type": "uint256"
        }
      ],
      "stateMutability": "view",
      "type": "function"
    },
    {
      "inputs": [
        {
          "internalType": "bytes",
          "name": "",
          "type": "bytes"
        }
      ],
      "name": "checkUpkeep",
      "outputs": [
        {
          "internalType": "bool",
          "name": "upkeepNeeded",
          "type": "bool"
        },
        {
          "internalType": "bytes",
          "name": "",
          "type": "bytes"
        }
      ],
      "stateMutability": "view",
      "type": "function"
    },
    {
      "inputs": [
        {
          "internalType": "bytes",
          "name": "",
          "type": "bytes"
        }
      ],
      "name": "performUpkeep",
      "outputs": [],
      "stateMutability": "nonpayable",
      "type": "function"
    },
    {
      "inputs": [
        {
          "internalType": "uint256",
          "name": "requestId",
          "type": "uint256"
        },
        {
          "internalType": "uint256[]",
          "name": "randomWords",
          "type": "uint256[]"
        }
      ],
      "name": "rawFulfillRandomWords",
      "outputs": [],
      "stateMutability": "nonpayable",
      "type": "function"
    },
    {
      "inputs": [],
      "name": "s_lastTimeStamp",
      "outputs": [
        {
          "internalType": "uint256",
          "name": "",
          "type": "uint256"
        }
      ],
      "stateMutability": "view",
      "type": "function"
    },
    {
      "inputs": [
        {
          "internalType": "uint256",
          "name": "",
          "type": "uint256"
        }
      ],
      "name": "s_requests",
      "outputs": [
        {
          "internalType": "uint256",
          "name": "requestId",
          "type": "uint256"
        },
        {
          "internalType": "bool",
          "name": "fulfilled",
          "type": "bool"
        },
        {
          "internalType": "uint32",
          "name": "callbackGasLimit",
          "type": "uint32"
        },
        {
          "internalType": "uint256",
          "name": "randomness",
          "type": "uint256"
        }
      ],
      "stateMutability": "view",
      "type": "function"
    },
    {
      "inputs": [],
      "name": "s_vrfRequestCounter",
      "outputs": [
        {
          "internalType": "uint256",
          "name": "",
          "type": "uint256"
        }
      ],
      "stateMutability": "view",
      "type": "function"
    },
    {
      "inputs": [],
      "name": "s_vrfResponseCounter",
      "outputs": [
        {
          "internalType": "uint256",
          "name": "",
          "type": "uint256"
        }
      ],
      "stateMutability": "view",
      "type": "function"
    }
  ],
  "bytecode": "0x6101406040523480156200001257600080fd5b506040516200131f3803806200131f833981810160405281019062000038919062000181565b848073ffffffffffffffffffffffffffffffffffffffff1660808173ffffffffffffffffffffffffffffffffffffffff1660601b81525050508473ffffffffffffffffffffffffffffffffffffffff1660c08173ffffffffffffffffffffffffffffffffffffffff1660601b815250508367ffffffffffffffff1660e08167ffffffffffffffff1660c01b815250508161ffff166101008161ffff1660f01b815250508261012081815250508060a0818152505042600081905550600060018190555060006002819055505050505050620002fa565b6000815190506200011f8162000278565b92915050565b600081519050620001368162000292565b92915050565b6000815190506200014d81620002ac565b92915050565b6000815190506200016481620002c6565b92915050565b6000815190506200017b81620002e0565b92915050565b600080600080600060a08688031215620001a0576200019f62000273565b5b6000620001b0888289016200010e565b9550506020620001c3888289016200016a565b9450506040620001d68882890162000125565b9350506060620001e9888289016200013c565b9250506080620001fc8882890162000153565b9150509295509295909350565b6000620002168262000235565b9050919050565b6000819050919050565b600061ffff82169050919050565b600073ffffffffffffffffffffffffffffffffffffffff82169050919050565b6000819050919050565b600067ffffffffffffffff82169050919050565b600080fd5b620002838162000209565b81146200028f57600080fd5b50565b6200029d816200021d565b8114620002a957600080fd5b50565b620002b78162000227565b8114620002c357600080fd5b50565b620002d18162000255565b8114620002dd57600080fd5b50565b620002eb816200025f565b8114620002f757600080fd5b50565b60805160601c60a05160c05160601c60e05160c01c6101005160f01c61012051610f9862000387600039600081816103c201526105ee0152600081816103e60152610630015260008181610247015261060f01526000818161035501526105b201526000818161026b01528181610379015261040e01526000818161028f01526102e30152610f986000f3fe608060405234801561001057600080fd5b50600436106100b45760003560e01c806351dc86a51161007157806351dc86a51461016957806367f082b0146101875780636e04ff0d146101a55780639579291e146101d6578063a168fa89146101f4578063f781864514610227576100b4565b8063030932bb146100b957806303526210146100d75780631fe543e3146100f557806334854043146101115780633b2bcbf11461012f5780634585e33b1461014d575b600080fd5b6100c1610245565b6040516100ce9190610c13565b60405180910390f35b6100df610269565b6040516100ec9190610bb3565b60405180910390f35b61010f600480360381019061010a9190610948565b61028d565b005b61011961034d565b6040516101269190610bb3565b60405180910390f35b610137610353565b6040516101449190610b5d565b60405180910390f35b610167600480360381019061016291906108a1565b610377565b005b6101716103c0565b60405161017e9190610aef565b60405180910390f35b61018f6103e4565b60405161019c9190610b98565b60405180910390f35b6101bf60048036038101906101ba91906108a1565b610408565b6040516101cd929190610abf565b60405180910390f35b6101de610445565b6040516101eb9190610bb3565b60405180910390f35b61020e600480360381019061020991906108ee565b61044b565b60405161021e9493929190610bce565b60405180910390f35b61022f610498565b60405161023c9190610bb3565b60405180910390f35b7f000000000000000000000000000000000000000000000000000000000000000081565b7f000000000000000000000000000000000000000000000000000000000000000081565b7f000000000000000000000000000000000000000000000000000000000000000073ffffffffffffffffffffffffffffffffffffffff163373ffffffffffffffffffffffffffffffffffffffff161461033f57337f00000000000000000000000000000000000000000000000000000000000000006040517f1cf993f4000000000000000000000000000000000000000000000000000000008152600401610336929190610a96565b60405180910390fd5b610349828261049e565b5050565b60005481565b7f000000000000000000000000000000000000000000000000000000000000000081565b7f0000000000000000000000000000000000000000000000000000000000000000600054426103a69190610cac565b11156103bc57426000819055506103bb6105ae565b5b5050565b7f000000000000000000000000000000000000000000000000000000000000000081565b7f000000000000000000000000000000000000000000000000000000000000000081565b600060607f00000000000000000000000000000000000000000000000000000000000000006000544261043b9190610cac565b1191509250929050565b60025481565b60036020528060005260406000206000915090508060000154908060010160009054906101000a900460ff16908060010160019054906101000a900463ffffffff16908060020154905084565b60015481565b600060036000848152602001908152602001600020604051806080016040529081600082015481526020016001820160009054906101000a900460ff161515151581526020016001820160019054906101000a900463ffffffff1663ffffffff1663ffffffff16815260200160028201548152505090508281600001511461055b576040517f08c379a000000000000000000000000000000000000000000000000000000000815260040161055290610b78565b60405180910390fd5b8160008151811061056f5761056e610e9a565b5b60200260200101516003600085815260200190815260200160002060020181905550600260008154809291906105a490610e22565b9190505550505050565b60007f000000000000000000000000000000000000000000000000000000000000000073ffffffffffffffffffffffffffffffffffffffff16635d3b1d307f00000000000000000000000000000000000000000000000000000000000000007f00000000000000000000000000000000000000000000000000000000000000007f0000000000000000000000000000000000000000000000000000000000000000620249f060016040518663ffffffff1660e01b8152600401610675959493929190610b0a565b602060405180830381600087803b15801561068f57600080fd5b505af11580156106a3573d6000803e3d6000fd5b505050506040513d601f19601f820116820180604052508101906106c7919061091b565b90506040518060800160405280828152602001600015158152602001620249f063ffffffff1681526020016000815250600360008381526020019081526020016000206000820151816000015560208201518160010160006101000a81548160ff02191690831515021790555060408201518160010160016101000a81548163ffffffff021916908363ffffffff160217905550606082015181600201559050506001600081548092919061077b90610e22565b919050555050565b600061079661079184610c53565b610c2e565b905080838252602082019050828560208602820111156107b9576107b8610f02565b5b60005b858110156107e957816107cf8882610877565b8452602084019350602083019250506001810190506107bc565b5050509392505050565b600082601f83011261080857610807610efd565b5b8135610818848260208601610783565b91505092915050565b60008083601f84011261083757610836610efd565b5b8235905067ffffffffffffffff81111561085457610853610ef8565b5b6020830191508360018202830111156108705761086f610f02565b5b9250929050565b60008135905061088681610f4b565b92915050565b60008151905061089b81610f4b565b92915050565b600080602083850312156108b8576108b7610f0c565b5b600083013567ffffffffffffffff8111156108d6576108d5610f07565b5b6108e285828601610821565b92509250509250929050565b60006020828403121561090457610903610f0c565b5b600061091284828501610877565b91505092915050565b60006020828403121561093157610930610f0c565b5b600061093f8482850161088c565b91505092915050565b6000806040838503121561095f5761095e610f0c565b5b600061096d85828601610877565b925050602083013567ffffffffffffffff81111561098e5761098d610f07565b5b61099a858286016107f3565b9150509250929050565b6109ad81610ce0565b82525050565b6109bc81610cf2565b82525050565b6109cb81610cfe565b82525050565b60006109dc82610c7f565b6109e68185610c8a565b93506109f6818560208601610dbe565b6109ff81610f11565b840191505092915050565b610a1381610d64565b82525050565b610a2281610d76565b82525050565b610a3181610d88565b82525050565b6000610a44601b83610c9b565b9150610a4f82610f22565b602082019050919050565b610a6381610d08565b82525050565b610a7281610d36565b82525050565b610a8181610d40565b82525050565b610a9081610d50565b82525050565b6000604082019050610aab60008301856109a4565b610ab860208301846109a4565b9392505050565b6000604082019050610ad460008301856109b3565b8181036020830152610ae681846109d1565b90509392505050565b6000602082019050610b0460008301846109c2565b92915050565b600060a082019050610b1f60008301886109c2565b610b2c6020830187610a87565b610b396040830186610a5a565b610b466060830185610a19565b610b536080830184610a28565b9695505050505050565b6000602082019050610b726000830184610a0a565b92915050565b60006020820190508181036000830152610b9181610a37565b9050919050565b6000602082019050610bad6000830184610a5a565b92915050565b6000602082019050610bc86000830184610a69565b92915050565b6000608082019050610be36000830187610a69565b610bf060208301866109b3565b610bfd6040830185610a78565b610c0a6060830184610a69565b95945050505050565b6000602082019050610c286000830184610a87565b92915050565b6000610c38610c49565b9050610c448282610df1565b919050565b6000604051905090565b600067ffffffffffffffff821115610c6e57610c6d610ec9565b5b602082029050602081019050919050565b600081519050919050565b600082825260208201905092915050565b600082825260208201905092915050565b6000610cb782610d36565b9150610cc283610d36565b925082821015610cd557610cd4610e6b565b5b828203905092915050565b6000610ceb82610d16565b9050919050565b60008115159050919050565b6000819050919050565b600061ffff82169050919050565b600073ffffffffffffffffffffffffffffffffffffffff82169050919050565b6000819050919050565b600063ffffffff82169050919050565b600067ffffffffffffffff82169050919050565b6000610d6f82610d9a565b9050919050565b6000610d8182610d40565b9050919050565b6000610d9382610d40565b9050919050565b6000610da582610dac565b9050919050565b6000610db782610d16565b9050919050565b60005b83811015610ddc578082015181840152602081019050610dc1565b83811115610deb576000848401525b50505050565b610dfa82610f11565b810181811067ffffffffffffffff82111715610e1957610e18610ec9565b5b80604052505050565b6000610e2d82610d36565b91507fffffffffffffffffffffffffffffffffffffffffffffffffffffffffffffffff821415610e6057610e5f610e6b565b5b600182019050919050565b7f4e487b7100000000000000000000000000000000000000000000000000000000600052601160045260246000fd5b7f4e487b7100000000000000000000000000000000000000000000000000000000600052603260045260246000fd5b7f4e487b7100000000000000000000000000000000000000000000000000000000600052604160045260246000fd5b600080fd5b600080fd5b600080fd5b600080fd5b600080fd5b6000601f19601f8301169050919050565b7f72657175657374204944206e6f7420666f756e6420696e206d61700000000000600082015250565b610f5481610d36565b8114610f5f57600080fd5b5056fea2646970667358221220d14792fdeba40e1e051b953469582fea0f64cbaa3fafc837c89753d0f3fae55964736f6c63430008070033",
  "linkReferences": {},
  "deployedLinkReferences": {}
}